:020000040800F2
:1000000000750020290300088B2800084B260008F3
:1000100089280008A9070008F13000080000000046
:10002000000000000000000000000000690200085D
:100030005D08000800000000C5020008952A0008BD
:100040004303000843030008430300084303000878
:100050004303000843030008430300084303000868
:100060004303000843030008430300084303000858
:100070004303000843030008430300084303000848
:100080004303000843030008430300084303000838
:100090004303000843030008430300084303000828
:1000A0004303000843030008430300084303000818
:1000B0004303000843030008430300084303000808
:1000C00043030008430300084303000843030008F8
:1000D00043030008E5300008430300084303000819
:1000E00043030008430300084303000843030008D8
:1000F00043030008430300084303000843030008C8
:100100004303000843030008552B0008430300087D
:1001100043030008430300084303000843030008A7
:100120004303000843030008430300084303000897
:100130004303000843030008430300084303000887
:100140004303000843030008430300084303000877
:100150004303000843030008AD07000843030008F9
:100160004303000843030008430300084303000857
:100170004303000843030008430300080000000095
:10018000430300084303000800F002F800F05CF8A5
:100190000AA090E8000C82448344AAF10107DA45E2
:1001A00001D100F051F8AFF2090EBAE80F0013F0D8
:1001B000010F18BFFB1A43F001031847E47E00004B
:1001C000047F00000A444FF0000C10F8013B13F0CC
:1001D000070408BF10F8014B1D1108BF10F8015BA0
:1001E000641E05D010F8016B641E01F8016BF9D193
:1001F00013F0080F1EBF10F8014BAD1C0C1B09D1EA
:100200006D1E58BF01F801CBFAD505E014F8016B5B
:1002100001F8016B6D1EF9D59142D6D370470000ED
:100220000023002400250026103A28BF78C1FBD8FF
:10023000520728BF30C148BF0B6070471FB507F099
:1002400065F81FBD10B510BD00F080FA1146FFF72C
:10025000F5FF04F06DF900F09EFA03B4FFF7F2FF2A
:1002600003BC03F0C3FC00002C4B19680868B0E81D
:10027000F04F80F30988BFF36F8F4FF0000080F3D9
:10028000118870470000000008480068006880F38B
:1002900008884FF0000080F3148862B661B6BFF39F
:1002A0004F8FBFF36F8F00DF00BF00BF08ED00E08E
:1002B000DFF80C00016841F470010160704700BF75
:1002C00088ED00E0EFF30980BFF36F8F134B1A68DE
:1002D0001EF0100F08BF20ED108A20E9F04F1060CB
:1002E00009B44FF0500080F31188BFF34F8FBFF374
:1002F0006F8F06F03FF94FF0000080F3118809BCC2
:1003000019680868B0E8F04F1EF0100F08BFB0EC95
:10031000108A80F30988BFF36F8F704714000020A4
:10032000EFF30580704700000948804709480047FF
:10033000FEE7FEE7FEE7FEE7FEE7FEE7FEE7FEE795
:10034000FEE7FEE704480549054A064B70470000F2
:10035000452B000889010008006F0020007500206F
:100360000071002000710020704753EA020C00F079
:1003700069802DE9F04B4FF00006002B1FBFB3FA48
:1003800083F503FA05F424FA05F65E4012BF16431E
:10039000B2FA82F502FA05F4C5F120051EBF22FA71
:1003A00005FC44EA0C04203556EA044C4FEA144498
:1003B00018BF641C4FF000084FF00009904271EB29
:1003C000030C39D3002919BFB1FA81F701FA07F6F6
:1003D000B0FA80F700FA07F6C7F120071EBF20FA2F
:1003E00007FC46EA0C062037B6FBF4FCA7EB050732
:1003F000103F07F01F0BCBF120060CFA0BFB2CFA79
:1004000006F644BFB3460026202FA4BF5E464FF039
:10041000000B5BEA060C08BF4FF0010B19EB0B0950
:10042000ABFB027C48EB0608C01B06FB02CC0BFBB7
:1004300003CC71EB0C01C1E70B460246414648462E
:10044000BDE8F08B13B54FF000004FF00001AFF3A3
:100450000080BDE81C40704710B54C1084EA53047E
:1004600004D54042C1F1000138BF491E1B4204D5EA
:100470005242C3F1000338BF5B1EFFF776FF14F052
:10048000804F04D04042C1F1000138BF491E14F032
:10049000004F04D05242C3F1000338BF5B1E10BDB1
:1004A00040EA010310B59B070FD1042A0DD310C8F1
:1004B00008C9121F9C42F8D020BA19BA884201D943
:1004C000012010BD4FF0FF3010BD1AB1D30703D08B
:1004D000521C07E0002010BD10F8013B11F8014B41
:1004E0001B1B07D110F8013B11F8014B1B1B01D15D
:1004F000921EF1D1184610BD40EA010370B59B076A
:100500002ED14FF00136042A2AD308C810C99D1BEA
:100510009D43121F15EAC61517D0D8B2E1B2401A92
:1005200050EA056110D198B2A1B2401A50EA0541D3
:100530000AD123F07F4024F07F41401A50EA052180
:1005400002D1180EA0EB146070BDA342DBD018BA24
:1005500021BA884201D9012070BD4FF0FF3070BD33
:100560000AB9002070BD10F8013B11F8014B63B1CE
:10057000A3420AD1521E08D010F8013B11F8014BDA
:100580001BB1A34201D1521EEDD1181B70BD032A2D
:1005900040F2308010F0030C00F0158011F8013BA0
:1005A000BCF1020F624498BF11F801CB00F8013B87
:1005B00038BF11F8013BA2F1040298BF00F801CB4B
:1005C00038BF00F8013B11F0030300F02580083A22
:1005D000C0F0088051F8043B083A51F804CBA0E879
:1005E0000810F5E7121D5CBF51F8043B40F8043BCE
:1005F000AFF30080D20724BF11F8013B11F801CB03
:1006000048BF11F8012B24BF00F8013B00F801CBD3
:1006100048BF00F8012B704710B5203AC0F00B809E
:10062000B1E81850203AA0E81850B1E81850A0E8F6
:100630001850BFF4F5AF5FEA027C24BFB1E8185050
:10064000A0E8185044BF18C918C0BDE810405FEAC0
:10065000827C24BF51F8043B40F8043B08BF70473C
:10066000D20728BF31F8023B48BF11F8012B28BF41
:1006700020F8023B48BF00F8012B704702F0FF034F
:1006800043EA032242EA024200F002B84FF00002BD
:100690000429C0F0128010F0030C00F01B80CCF194
:1006A000040CBCF1020F18BF00F8012BA8BF20F802
:1006B000022BA1EB0C0100F00DB85FEAC17C24BF56
:1006C00000F8012B00F8012B48BF00F8012B704700
:1006D0004FF0000200B5134694469646203922BFDB
:1006E000A0E80C50A0E80C50B1F12001BFF4F7AF26
:1006F000090728BFA0E80C5048BF0CC05DF804EB08
:10070000890028BF40F8042B08BF704748BF20F875
:10071000022B11F0804F18BF00F8012B7047704773
:1007200070477047704710B500F008F8006810BDBA
:1007300010B5044600F002F8046010BD0048704790
:100740009C6E0020004870479C6E00207546FFF7A5
:10075000F9FFAE4605006946534620F0070085467E
:1007600018B020B5FFF7EEFDBDE820404FF00006C1
:100770004FF000074FF000084FF0000B21F0070189
:10078000AC46ACE8C009ACE8C009ACE8C009ACE8CC
:10079000C0098D46704710B50446AFF3008020466F
:1007A000BDE81040FFF759BDFEE70000014800F02A
:1007B000B3B80000F402002001681823CAB2103A4E
:1007C000B2FBF3F2054B6FF30901032A9B5CC3658F
:1007D00000D9091D81650846704700003C73000878
:1007E00010B5014600208B698A6A4FF0C07453B17E
:1007F000B3F5005F15D072B1012A0CD0022A0AD0DD
:10080000032A09D104E01AB1012A06D0022A03D131
:10081000C96AC90100D5012010BDC96AA142FAD038
:1008200010BD002AF7D0012AF2D0022AF3D0032A01
:10083000F3D010BD30B50468256825F48025256007
:10084000046863608368402B036803D09960006884
:10085000C26030BD9A600068C16030BD704772B63A
:10086000FEE72DE9F0410446876D00F0C7FA054622
:1008700094F835000026022806D08020606584F8B0
:1008800034600120BDE8F0812068016821F0160184
:1008900001602068416921F080014161206C08B944
:1008A000A06C20B12068016821F008010160206877
:1008B000016821F0010101600CE000F09FFA401B8B
:1008C000052807D920206065032084F8350084F8C6
:1008D0003460D7E720680068C007EED194F85C1058
:1008E0003F208840B860012084F8350084F83460E7
:1008F0000020C7E790F83510022903D08021416518
:1009000001207047052180F835100068016821F04A
:1009100001010160002070472DE9F84304464FF0C3
:100920000009CDF8009063484FF41651A56D00689A
:10093000B0FBF1F72E6894F85C20082101FA02F070
:1009400030420FD02068026852070BD5026822F0AF
:100950000402026094F85C008140A960606D40F080
:100960000100606594F85C104FF0010808FA01F08E
:10097000304208D021684969090604D5A860606D35
:1009800040F00200606594F85C100420884030421A
:1009900008D021680968890704D5A860606D40F017
:1009A0000400606594F85C1010208840304218D034
:1009B00021680968090714D5A860206801684903FF
:1009C00004D50068000308D5A16C07E00168C905DB
:1009D00003D4016821F008010160216C09B12046AF
:1009E000884794F85C1020208840304231D021683C
:1009F0000968C9062DD5A86094F835000528206837
:100A0000016806D0490347D5006800031DD4616C16
:100A10001CE021F0160101602068416921F080018D
:100A20004161206C08B9A06C20B12068016821F0F8
:100A30000801016094F85C103F208840A86084F8A9
:100A4000358084F83490216D1FE0E16B09B12046B8
:100A50008847606D00282BD0606DC00714D005203A
:100A600084F835002068016821F0010101600098D8
:100A7000401C0090B84203D820680068C007F6D137
:100A800084F8358084F83490E16C002910D001B0EE
:100A90002046BDE8F04308470168C905D5D4016880
:100AA00021F01001016084F8358084F83490CCE79F
:100AB000BDE8F883100000202DE9F041044600F065
:100AC0009DF905465CB1022084F83500002684F8C3
:100AD00034602068016821F0010101600DE001200F
:100AE000BDE8F08100F08AF9401B052805D92020D7
:100AF0006065032084F83500F2E720680068C007CD
:100B0000F0D121680A6820480240D4E90103184363
:100B1000D4E903352B43184363691843A369184389
:100B2000E3691843236A18431043626A042A03D115
:100B3000D4E90B231A431043086020684069656AB2
:100B400020F0070128460D43012704280CD1A06A94
:100B50000543E06A40B12046FFF742FE20B1402045
:100B6000606584F83570BAE7206845612046FFF774
:100B700023FE94F85C203F2191408160666584F8F3
:100B800035700020ACE700003F8010F02DE9F04107
:100B90000446866D90F83400002501280DD0012010
:100BA00084F8340094F835700020012F07D084F8C1
:100BB000340002252846BDE8F0810220FBE7022729
:100BC00084F8357060652046FFF734FE94F85C10B9
:100BD0003F208840B0602068016841F01601016044
:100BE000206C20B12068016841F008010160206894
:100BF000016841F001010160DCE7000070B50446C6
:100C000000F0FCF80546601C02D00448007804445B
:100C100000F0F4F8401BA042FAD370BD040000209D
:100C20002DE9F84FDFF89C910022A9F1040B03276E
:100C30004FF00F0C09F1040AABF1040E01250B680B
:100C400095402B40AB426ED10C7904F00304012C8B
:100C500001D0022C15D18668540007FA04F826EA60
:100C60000806D1F80C8008FA04F848EA0608C0F82B
:100C700008804468AC430D79C5F3001595402543C1
:100C800045600C79E443A40708D0C568540007FA0E
:100C900004F6B5438E68A6402E43C6600C7904F076
:100CA0000304022C11D1D40800EB8406356A5407E2
:100CB000E40E0CFA04F825EA0805D1F8108008FAC9
:100CC00004F848EA0508C6F820800568540007FAC9
:100CD00004F6B5430E7906F00306A6402E430660DF
:100CE0004C6814F4403F66D0374C256845F4804585
:100CF0002560246822F0030504F480440094334CFA
:100D000005EB0408D8F808589407260F0CFA06F4E7
:100D1000A5432F4CA04201D1002424E02D4CA04239
:100D200002D101241FE046E02B4CA04201D1022455
:100D300019E02A4CA04201D1032414E0284CA0421F
:100D400001D104240FE0274CA04201D105240AE080
:100D5000254CA04201D1062405E0244CA04201D13B
:100D6000072400E00824B4402C43C8F80848D9F808
:100D700000404D464E689C43F60200D51C432C6053
:100D8000DAF8004055464E689C43B60200D51C4335
:100D90002C60DBF800405D464E689C43B60300D5EE
:100DA0001C432C60DEF8004075464E689C43F603F9
:100DB00000D51C432C60521C102AFFF43FAFBDE845
:100DC000F88F0000083C01404438024000300140E8
:100DD000000002400004024000080240000C0240F3
:100DE000001002400014024000180240001C0240A3
:100DF0000AB1816170470904FBE70000014880687F
:100E00007047000004000020024881680278114405
:100E100081607047040000200B4810B5016841F460
:100E200000710160016841F480610160016841F472
:100E300080710160032000F09FF80F2000F006F899
:100E400000F050F8002010BD003C024030B50546CF
:100E50001F4887B00024016841F008010160006864
:100E600006A900F008000590684600F031F90398E3
:100E7000A8B100F04DF940001649174AB0FBF1F156
:100E80001648491E026040F2E732C0E90324C0E977
:100E90000114846100F0A4FE040003D015E000F00A
:100EA00037F9E9E70D4800F0C9FE04000DD1322002
:100EB00000F034F8102D07D200222946322000F02D
:100EC0003BF80748056000E0012407B0204630BD2C
:100ED0004038024040420F00000C00405403002004
:100EE000080000200C4882B0016841F48041016094
:100EF000006800F4804000900748001F016841F03E
:100F0000805101600068002200F0805000900F21A5
:100F1000901E02B000F010B844380240002809DBEF
:100F200000F01F02012191404009800000F1E02003
:100F3000C0F8001170470000F0B40E4B1B68C3F3FB
:100F40000223C3F10704042C00D904241D1D072D1E
:100F500001D2002300E0DB1E012606FA04F56D1E17
:100F60000D409D409E40761E164045EA0601F0BCAD
:100F700002F0D2B80CED00E0064A00F0070110685C
:100F80004FF6FF03184040EA012003490843106070
:100F9000704700000CED00E00000FA052DE9F04775
:100FA0000D46040065D0DFF81491D9F80000EFB2C7
:100FB00000F00700A84207D289F80070D9F80000B5
:100FC00000F00700A84254D120683D4E810712D599
:100FD000400703D5306840F4E050306020780007C7
:100FE00003D5306840F4604030603068A16820F07C
:100FF000F000084330602078C0072DD03049606889
:101000000839012812D0022813D0032811D009680A
:10101000890700292DDA316821F00301014331608D
:10102000FFF7ECFE804641F2883A0EE0096889033A
:10103000EFE709688901ECE7FFF7E0FEA0EB0801A4
:10104000514502D90320BDE8F0873068616800F09F
:101050000C00B0EB810FEFD1D9F80010484601F039
:101060000701A94207D90770006800F00700A842ED
:1010700001D00120E7E72078400705D53068E16816
:1010800020F4E050084330602078000706D530682F
:10109000216920F4604040EAC100306000F058F857
:1010A0003168084AC1F30311515CC8400649086021
:1010B00006480068FFF7CAFE0020C4E7003C024073
:1010C0000838024044730008100000200800002087
:1010D0000F2202600C4A136803F003034360136895
:1010E00003F0F0038360136803F4E053C3601268F5
:1010F0004FF4E05303EAD20202610448006800F0B2
:10110000070008607047000008380240003C0240B9
:101110000448054900680968044AC1F38221515C0A
:10112000C84070471000002008380240547300087F
:101130000448054900680968044AC1F34231515C1A
:10114000C84070471000002008380240547300085F
:10115000154810B5006810F00C01144813D0431066
:1011600004290FD008290ED10F4C241F216801F04B
:101170003F022168490207D52068C0F38810A0FB10
:10118000030106E0184610BD2168C1F38811A1FBD8
:1011900000010023FFF7E9F82168C1F30141491C70
:1011A0004900B0FBF1F010BD083802400024F40003
:1011B0002DE9F84F040075D02078DFF838A3C00778
:1011C000AAF1040548D00AF104000168C1F38101C5
:1011D000012908D00068C0F3810002280AD1DAF89A
:1011E0000000400206D52868800335D560680028D5
:1011F000E1D031E06068B0F5803F10D0B0F5A02FAD
:10120000286810D020F480302860286820F48020DE
:1012100028606068A0B1FFF7F1FD06460CE0286881
:1012200040F48030F4E740F480202860F7E7FFF7CF
:10123000E5FD801B642871D828688003F7D50BE092
:10124000FFF7DCFD064604E0FFF7D8FD801B6428AD
:10125000F1D828688003F7D42078DFF89C928007C3
:101260004FF0000B3DD5A348001D016811F00C0F95
:1012700008D00068C0F3810002280AD1DAF8000023
:10128000400206D42868800715D5E068012809D1F6
:1012900011E0E068B8B10120C9F80000FFF7AEFD29
:1012A000064605E022E1FFF7A9FD801B0228C2D80F
:1012B00028688007F7D52868216920F0F80040EAFF
:1012C000C10028600DE0C9F800B0FFF797FD0646A1
:1012D00004E0FFF793FD801B02281FD828688007D1
:1012E000F7D42078000722D5824F8448616970378F
:1012F00071B101210160FFF781FD064604E0FFF7AF
:101300007DFD801B022809D838688007F7D50EE0DC
:10131000C0F800B0FFF772FD064605E082E0FFF777
:101320006DFD801B02287DD838688007F7D42078AF
:10133000400765D56F484FF000083C300068C0009A
:101340000BD46C483C30016841F08051016000686A
:101350004FF0010800F080500090694F3868C005D8
:101360000FD4386840F480703860FFF747FD0646B8
:1013700004E0FFF743FD801B022853D83868C005FE
:10138000F7D55C4FA0686C3701280FD00528386866
:1013900010D020F001003860386820F00400386078
:1013A000A068B0B1FFF72AFD06460EE0386840F0AD
:1013B0000100F4E740F004003860F7E7FFF71EFD96
:1013C000811B41F28830814263D838688007F5D5A7
:1013D0000DE0FFF713FD064606E0FFF70FFD811B4A
:1013E00041F28830814254D838688007F5D4B8F18A
:1013F000000F05D03F483C30016821F0805101606A
:10140000A069B8B33B49091D0968C1F381010229EC
:1014100046D00228584606D0C9F86000FFF7EEFC17
:10142000044639E035E04F46C9F86000FFF7E6FCB6
:10143000064604E0FFF7E2FC801B022829D8286852
:101440008001F7D4D4E907010843A16A2D4A49086D
:1014500002EB0141626A41EA8211084394F82C10C0
:1014600040EA0161CAF8001001203866FFF7C6FCA7
:10147000044605E03CE0FFF7C1FC001B022808D849
:1014800028688001F7D533E0FFF7B8FC001B02287D
:1014900002D90320BDE8F88F28688001F4D427E042
:1014A0000128F7D0DAF80000E26900F480019142E7
:1014B0001CD1226A00F03F01914217D147F6C0715A
:1014C000626A0140B1EB821F10D1A26A4FF0FF3374
:1014D00000F4403103EB5202B1EB024F06D194F815
:1014E0002C1000F07060B0EB016F01D00120D1E74B
:1014F0000020CFE70438024000004742800E4742F8
:10150000007000400000FFFF70B5040009D0606A61
:10151000002540B125616561A56294F8510040B194
:101520000CE0012070BD6068B0F5827FF4D0E56109
:10153000F2E784F85050204600F044F8022084F886
:1015400051002068016821F040010160A0882189D4
:1015500000F4827001F404410843A18901F40061A0
:101560000843217C01F002010843217D01F00101C3
:101570000843218B01F400710843217F01F03801F9
:10158000084394F8201001F080010843218D01F4F4
:101590000051084321680860A069042101EA104055
:1015A00094F8241001F01001084321684860206875
:1015B000C16921F40061C1616565012084F85100B1
:1015C000002070BDF0B587B0044614216846FFF7CF
:1015D0007FF81C492068884232D11B4800250168E9
:1015E00041F480510160006800F480500590164875
:1015F0001438016841F001010160016801F0010146
:101600000591016841F0020101600068022600F0C6
:10161000020005902020CDE900060327052402954D
:10162000CDE9037469460948FFF7FAFA3020CDE99D
:1016300000060295CDE9037469460548FFF7F0FA04
:1016400007B0F0BD003001404438024000000240C5
:10165000000402402DE9F84F044690F851008846F6
:101660001D46174601283BD1B8F1000F78D0002F56
:1016700076D060684FF00409B0F5827F01D1A06890
:1016800018B3FFF7BBFB064694F85000012827D09B
:101690004FF0010A84F850A084F851904FF00009EF
:1016A000C4F85490C4F83880A787E787C4F830900E
:1016B000A4F83490A4F83690C4F84090C4F844904C
:1016C000A068B0F5004F0DD016E084F8519000935B
:1016D000134642461146204600F01AF9BDE8F88F3D
:1016E0000220FBE72068016821F0400101602068CA
:1016F000016821F48041016020680168490603D433
:10170000016841F040010160E068B8B132E0206852
:101710008168C90709D0007BA16B0870A06B401CD1
:10172000A063E08F401EE08708E0FFF767FB801BA7
:10173000A84202D3681C01D031E07DB3E08F0028BD
:10174000E5D11AE020688168C9070AD0C068A16B9A
:101750000880A06B801CA063E08F401EE08709E03A
:101760001AE0FFF74BFB801BA84202D3681C01D094
:1017700015E09DB1E08F0028E4D13246294620468D
:1017800001F084F808B12020606584F851A084F845
:101790005090606D0028A1D001209FE7FFE784F8FA
:1017A00051A084F85090032098E72DE9F84F1D468A
:1017B00017468A460446FFF721FB064694F8510077
:1017C000012826D1BAF1000F77D0002F75D094F8F8
:1017D000500001281DD04FF0010984F850900320DB
:1017E00084F851004FF00008C4F85480C4F830A0C9
:1017F000A786E786C4F83880A4F83C80A4F83E8029
:10180000C4F84480C4F84080A068B0F5004F03D00D
:101810000CE00220BDE8F88F2068016821F040014B
:1018200001602068016841F480410160206801681E
:10183000490603D4016841F040010160E068B0F559
:10184000006F606803D028B3012F23D03FE008B1B8
:10185000012F1BD1206B21680088C86006E020683A
:101860008168890709D5216B0988C160206B801CBC
:101870002063E08E401EE08608E0FFF7BFFA801B81
:10188000A84202D3681C01D02FE075B3E08E002877
:10189000E5D11FE0206B21680078087306E020681E
:1018A000816889070AD5216B09780173206B401C78
:1018B0002063E08E401EE08609E027E0FFF79EFAF5
:1018C000801BA84202D3681C01D00EE06DB1E08EEF
:1018D0000028E4D132462946204601F005F808B137
:1018E00020206065A06830B109E084F8519084F848
:1018F000508003208EE72068C1688068009084F8DB
:10190000519084F85080606D002883D0012081E7D9
:101910002DE9FF4F81B01F469346044601250E9ED8
:10192000FFF76CFA804694F851006168012806D0F0
:10193000B1F5827F3CD1A168C9BB042838D1029897
:10194000002870D0BBF1000FFBD0002FF9D094F825
:10195000500001282CD04FF0010A84F850A094F8D0
:101960005100042802D0052084F851004FF00009EE
:10197000C4F85490C4F838B0E787A7870299216368
:10198000E786A786C4F84090C4F8449020680168B0
:10199000490603D4016841F040010160E068B0F5F8
:1019A000006F606808D0E8B3012F47D07DE0FFE703
:1019B000022005B0BDE8F08F08B1012F37D1206BB0
:1019C00021680088C860206B801C2063E08E401E68
:1019D000E0862CE02068816889070DD5E18E59B139
:1019E000012D09D1216B0988C160206B801C206307
:1019F000E08E401EE086002520688168C9070BD074
:101A0000E18F49B1C068A16B0880A06B801CA06306
:101A1000E08F401EE0870125FFF7F0F9A0EB0800FA
:101A2000B04201E00AE064E001D3701C4ED1E08EC8
:101A30000028CFD1E08F0028CCD13CE0206B21687A
:101A400000780873206B401C2063E08E401EE08607
:101A50002BE02068816889070DD5E18E59B1012DF1
:101A600009D1216B09780173206B401C2063E08E43
:101A7000401EE086002520688168C9070BD0E18FF1
:101A800049B1C068A16B0870A06B401CA063E08FD7
:101A9000401EE0870125FFF7B1F9A0EB0800B04236
:101AA00002D3701C01D011E086B1E08E0028D0D1A5
:101AB000E08F0028CDD142463146204600F014FF89
:101AC00050B12020606584F8509012E084F851A055
:101AD00084F8509003206CE7A06818B92068C168AA
:101AE0008068009084F851A084F85090606D0028C0
:101AF000F1D001205DE77047704710B590F83C20A9
:101B0000012A22D0012280F83C20CA688C6822F485
:101B1000407222434C6822F4806222430C6822F413
:101B2000006222430C6922F4805222434C6922F461
:101B300000522243C969002322F480420A4301680B
:101B40004A6480F83C30002010BD022010BD000027
:101B500070B590F83C20012A32D0012580F83C5025
:101B6000022280F83D2002685368946823F07006D2
:101B70000B6833435360134B02689A4214D0B2F19E
:101B8000804F11D0104B9A420ED0104B9A420BD07E
:101B90000F4B9A4208D00F4B9A4205D00E4B9A42F7
:101BA00002D00E4B9A4204D1496824F080031943B5
:101BB000916080F83D50002180F83C10084670BDCF
:101BC000022070BD000001400004004000080040F9
:101BD000000C00400004014000400140001800409B
:101BE00010B5040003D094F83D0010B107E00120C7
:101BF00010BD002084F83C00204600F01EF80220B2
:101C000084F83D00211D206800F0AAFF012084F81F
:101C1000460084F83E0084F83F0084F8400084F8D1
:101C2000410084F8420084F8430084F8440084F8BA
:101C3000450084F83D00002010BD704790F83D102D
:101C4000012901D001207047022180F83D10016870
:101C5000CA6842F00102CA6000681149884214D083
:101C6000B0F1804F11D00F4988420ED00E49884202
:101C70000BD00E49884208D00D49884205D00D4945
:101C8000884202D00C49884204D1816801F00701E2
:101C9000062903D0016841F001010160002070476E
:101CA000000001400004004000080040000C00401B
:101CB00000040140004001400018004070472DE939
:101CC000F04104460068C66805694FF00007A9079F
:101CD00013D5B10711D5F91E0161012020772068C5
:101CE00080698007204602D0FFF7E8FF04E000F09B
:101CF000C1F8204600F074F92777680716D57007F9
:101D000014D521686FF00400086102202077206854
:101D1000806910F4407F204602D0FFF7CFFF04E037
:101D200000F0A8F8204600F05BF92777280715D5C2
:101D3000300713D521686FF0080008610420207770
:101D40002068C0698007204602D0FFF7B7FF04E093
:101D500000F090F8204600F043F92777E80616D502
:101D6000F00614D521686FF0100008610820207774
:101D70002068C06910F4407F204602D0FFF79EFF24
:101D800004E000F077F8204600F02AF92777E8070A
:101D900008D0F00706D021686FF0010008612046E6
:101DA00000F088F9280608D5300606D521686FF0BE
:101DB000800008612046FFF79EFE680608D5700681
:101DC00006D521686FF040000861204600F07CF9DC
:101DD000A8060AD5B00608D521686FF02000086172
:101DE0002046BDE8F041FFF787BEBDE8F081000066
:101DF00010B586B0044614216846FEF769FC2068D9
:101E0000174C002217490223A04212D1086840F063
:101E1000100008600868694600F0100005904FF453
:101E2000D0400090CDE901320120CDE903200E48D9
:101E300012E00E4CA04211D1086840F00800086082
:101E40000868694600F008000590A0140090CDE9EC
:101E500001320748CDE90323FEF7E2FE06B010BDCC
:101E600000000140303802400010024000080040ED
:101E7000000C0240704770B5044690F83C00002604
:101E80000D4601280FD0012084F83C006AB1042AD5
:101E90001DD0082A2FD00C2A3FD00126002084F81C
:101EA0003C00304670BD022070BD206800F0CEFEC0
:101EB0002068816941F0080181612068816921F011
:101EC00004018161206881692A69114311E0206859
:101ED00000F0ECFE2068816941F4006181612068B6
:101EE000816921F480618161206881692A6941EA00
:101EF00002218161D2E7206800F00EFF2068C169ED
:101F000041F00801C1612068C16921F00401C1618B
:101F10002068C1692A69114311E0206800F030FF90
:101F20002068C16941F40061C1612068C16921F480
:101F30008061C1612068C1692A6941EA0221C161E9
:101F4000ACE710B5040003D094F83D0010B107E0F1
:101F5000012010BD002084F83C00204600F01EF84F
:101F6000022084F83D00211D206800F0F9FD0120C9
:101F700084F8460084F83E0084F83F0084F840006E
:101F800084F8410084F8420084F8430084F8440057
:101F900084F8450084F83D00002010BD08B50068B5
:101FA0000C49884208D10C48016841F001010160E8
:101FB000006800F001000BE00849884209D106489A
:101FC000001F016841F004010160006800F0040096
:101FD000009008BD00000140443802400008004065
:101FE0007047000010B5044649B104290AD00829F9
:101FF0000BD094F8410001280AD0012010BD94F8BC
:102000003E00F8E794F83F00F5E794F84000F2E767
:102010000220B1B3042938D0082939D084F841000E
:102020000122206800F004FE1B4920681B4A8842F8
:1020300001D0904203D1436C43F4004343642068D1
:10204000884213D0B0F1804F10D0154988420DD08E
:10205000144988420AD01449884207D0904205D0DA
:102060001249884202D01249884204D1816801F0A5
:102070000701062903D0016841F001010160002039
:1020800010BDFFE784F83E00CAE784F83F00C7E7C9
:1020900084F84000C4E70000000001400004014053
:1020A0000004004000080040000C004000400140D7
:1020B0000018004000680349884201D1FEF7A4BE21
:1020C00070470000000C00407047704770470000E8
:1020D000F8B5016804460868CA684B6910F00F0F2C
:1020E0004FF0000559D003F0010602F49077374312
:1020F00065D0C10705D0D10503D5616C41F0010160
:102100006164410705D5D90703D0616C41F0020134
:102110006164810705D5D90703D0616C41F00401E2
:102120006164010707D502F02001314303D0616CDF
:1021300041F008016164616C00293AD0800604D541
:10214000900602D5204600F0CAFE20684069616C06
:10215000C0F38010090700D460B3204600F08AFE67
:1021600020684069400621D52068143050E8001FDF
:1021700021F0400140E80012002AF5D1E06BA8B13F
:1021800072490165E06BFEF7B5FB002811D0E06BEA
:10219000016D01B0BDE8F040084783060FD59306F6
:1021A0000DD52046BDE8F84000F099BE2046FFF767
:1021B0008DFFF8BD2046FFF789FF6564F8BD266BEB
:1021C0002023012E7ED1C6067CD5D6067AD5086896
:1021D0004868009048694FF0020640064DD5E26B12
:1021E000106840684FF480770004000C3AD0A18D4D
:1021F000814237D9E085D069B8422DD020680C30B3
:1022000050E8001F21F4807140E80012002AF5D147
:102210002068143050E8001F21F0010140E800124E
:10222000002AF5D12068143050E8001F21F0400149
:1022300040E80012002AF5D184F842302563206876
:102240000C3050E8001F21F0100140E80012002A75
:10225000F5D1E06BFEF705FB6663A08DE18D401ABA
:1022600081B206E0A18D8142A8D1D069B842A5D142
:1022700066632046FFF729FFF8BDA08DE18D401A67
:1022800081B2E08D0028F7D00029F5D020680C300D
:1022900050E8002F22F4907240E80027002FF5D17B
:1022A0002068143050E8002F22F0010240E8002797
:1022B000002FF5D184F84230256320680C3050E8B7
:1022C000002F00E006E022F0100240E80023002B7F
:1022D000F3D1CDE705062BD5150629D594F8410095
:1022E0002128C9D1A068B0F5805F01D12069B0B1C3
:1022F000206A411C2162216800784860E08C401E01
:102300000004000CE084B7D12068C16821F080018E
:10231000C1602068C16841F04001C160F8BD206A19
:102320000088C0F308004860206A801C2062E5E74E
:102330004006F3D55006F1D5CA68204622F0400287
:10234000CA6084F8413000F061F9F8BDD12D000871
:1023500070B5040004D094F84100002510B106E0E7
:10236000012070BD84F84050204600F023F824205E
:1023700084F841002068C16821F40051C160204602
:1023800000F00EFE2068016921F49041016120688F
:10239000416921F02A0141612068C16841F400517E
:1023A000C1606564202084F8410084F842006563C0
:1023B000002070BDF0B587B0064614216846FEF7D0
:1023C00087F9DFF8D0C030680025334902220323A3
:1023D0000727324C60453ED12F481430D0F800C05A
:1023E0004CF0100CC0F800C0006800F01000059020
:1023F000086840F0010008600868694600F00100C4
:10240000059058028DE82500CDE903372046FEF7F8
:1024100007FC244C224820604FF0006060604020A0
:10242000C4E902050001C4E90405A561E56125626E
:1024300020466562FEF740FB08B1FEF710FAB46370
:10244000002205212520A663FEF776FD2520FEF754
:1024500065FD07B0F0BD144EB042FAD10E48103001
:10246000066846F400360660006800F40030059007
:10247000086840F0010008600868694600F0010043
:1024800005900C208DE82500CDE903372046FEF7A6
:10249000C7FBDEE700100140303802400000024078
:1024A000B8640240F40200200044004090F842303A
:1024B000202B01D00220704721B11AB10023036301
:1024C00000F0F4BD012070472DE9F8430068294968
:1024D00088424DD1294B284F03F5927CA3F2EC445E
:1024E0007D78A3F28C462A464FF0000821463046FC
:1024F000CDF800C002F07AF8022829D0032827D0AE
:10250000F0B1B868401CB8601C4815218068B1EB78
:10251000102F0FD01421B1EB102F0BD01721B1EBDE
:10252000102F07D05221B1EB102F03D04621B1EB71
:10253000102F05D100231A461049386904F02EFAED
:10254000BDE8F8430C490122491C0D48FFF7AEBF16
:102550004746204601F034FB01202770E070FD2D36
:10256000EED10220E070F770304602F0ABFBE7E7F7
:10257000BDE8F8830010014068010020286C0020AD
:102580006402002037B5044690F84100202801D0AD
:1025900002203EBD019901B3FAB12162A284E28416
:1025A00000206064212384F84130A56B144BEB6359
:1025B000A56B144B2B64A56B134BEB64A36B1865D5
:1025C00020681346A56B021D2846FEF7DFFA30B1DE
:1025D00010206064202084F8410001203EBD216865
:1025E0006FF0400008602068143050E8001F41F090
:1025F000800140E80012002AF5D100203EBD000015
:10260000292E00086B2E0008DF2D000808B5006891
:102610000A49884211D10020009009486946C068E3
:1026200004F01BFA0098002807D006494FF08050AC
:102630000860BFF34F8FBFF36F8F08BD00100140DC
:102640006801002004ED00E07047FEE7F0B587B0B8
:1026500014216846FEF73CF829480024016841F03F
:1026600004010160016801F004010591016841F075
:1026700080010160016801F080010591016841F06D
:1026800001010160016801F001010591016841F05B
:1026900002010160016801F002010591016841F049
:1026A00010010160016801F010010591016841F01D
:1026B000080101600068134E00F008000590012237
:1026C00004213046FEF794FB0F4F0122802138464B
:1026D000FEF78EFB042000900125CDE901546946E8
:1026E00030460394FEF79CFA8020CDE90005CDE941
:1026F000025469463846FEF793FA07B0F0BD000071
:102700003038024000040240001002400E4810B56C
:102710000C4901604FF48271416000218160C16009
:102720004FF400720161C0E90512C16101624162AA
:1027300081620A21C162FEF7E7FE002801D072B66D
:10274000FEE710BD003001407C01002010B592B0C2
:1027500000240F941C2168461094FDF7B9FF202136
:1027600007A8FDF7B5FF2A4828490160A721C0E95D
:10277000011444F61F61C0E903148021C0E905413A
:10278000FFF7DFFB08B172B6FEE70F940FA92048F0
:102790001094FFF7DDF908B172B6FEE760200090F3
:1027A00040F2DC50CDE90104039404940594042222
:1027B000694617480694FFF75EFB08B172B6FEE75C
:1027C000082269461248FFF756FB08B172B6FEE7C9
:1027D0000C2269460E48FFF74EFB08B172B6FEE7C1
:1027E0000794089409944FF400500A94CDE90B40E3
:1027F00007A907480E94FFF780F908B172B6FEE703
:102800000348FFF7F5FA12B010BD000000000140C8
:10281000D401002010B58AB0002407941C2168461A
:102820000894FDF755FF1748154901605321C0E989
:10283000011444F61F61C0E903148461FFF781FBB2
:1028400008B172B6FEE7079407A90E480894FFF78F
:102850007FF908B172B6FEE76020009040F2DC50CC
:10286000CDE901040022694606480494FFF703FB02
:1028700008B172B6FEE70348FFF7BAFA0AB010BD16
:10288000000800401C020020FEE7FEE7F8B5044601
:1028900040684FF48273984221D1A0684FF480655C
:1028A000B0F5004F01D0A8420AD12068066826F092
:1028B000400606606068984211D1A068A8420ED018
:1028C00000920B4600228021204600F043F80028A9
:1028D00004D0606D40F0200060650320F8BD0092D8
:1028E0000B4600220121EFE7F8B515460E460B46D0
:1028F000009204460122022100F02CF8A0B91348EE
:1029000013490068B0FBF1F04FF47A71484300902E
:102910006068B0F5827F0DD13346002280212046C9
:10292000009500F017F870B1606D40F02000606510
:102930000320F8BD009830B1401E009020688068E8
:10294000C0430006F6D50020F8BD000010000020AE
:1029500000366E012DE9F8431E469146884604462E
:10296000089DFEF74BFA401B351AFEF747FA07465B
:1029700026480068C0F3CB3068430AE0701C09D0D9
:10298000FEF73CFAC01BA8420FD275B10098B8B34D
:10299000401E00902068816838EA010033D0002092
:1029A0004845EBD10020BDE8F8832068416821F05C
:1029B000E00141606068B0F5827F0BD1A068B0F59E
:1029C000004F02D0B0F5806F04D12068016821F07B
:1029D00040010160A06AB0F5005F09D1206801687C
:1029E00021F4005101602068016841F40051016048
:1029F000012084F85100002084F850000320D2E721
:102A0000FFE70025C6E70120CAE70000100000200C
:102A10007CB503F04FFB00240620CDE900042346DB
:102A20004FF4C8720FA1124804F0F8F90420CDE960
:102A300000044FF4E17500232A460EA10F4804F06C
:102A4000EDF90520CDE9000400232A460CA10F482A
:102A500004F0E4F90E48006803F070FCBDE87C4027
:102A600003F048BB4A4554534F4E5F4C494E4B0010
:102A70006541000853454E534F525300355D0008E1
:102A800053544142494C495A45520000715E000876
:102A90000000002010B54FF0E020006904F018FAA3
:102AA000012803D0BDE8104003F018BE10BD00009F
:102AB00030B593B030216846FDF70AFE14210CA80A
:102AC000FDF706FE1D480025016841F080510160B8
:102AD000006800F0805011901948016841F480416D
:102AE00001600068022400F48040119001200090F1
:102AF000000401908001CDE9064008AA0420A82125
:102B000082E813000B906846FEF752FB08B172B6DC
:102B1000FEE70CA90F2081E831004FF4A0500F9080
:102B20004FF48050109005210CA8FEF737FA0028CA
:102B300001D072B6FEE713B030BD0000403802404D
:102B4000007000400248016841F470010160704764
:102B500088ED00E00148FFF7B2B800005403002000
:102B6000F0B50268274D284E284FDFF8A4C0294B46
:102B70004FF0804EA84209D0704507D0B04205D032
:102B8000B84203D0604501D0984203D122F07004CE
:102B90004A682243A8421BD0704519D0B04217D0D2
:102BA000B84215D0604513D0984211D01A4CA042BB
:102BB0000ED01A4CA0420BD0194CA04208D0194C90
:102BC000A04205D0184CA04202D0184CA04203D11C
:102BD00022F44074CA6822434C6922F080022243E6
:102BE0008C68C4620C688462A84201D0984201D10A
:102BF00009690163016841F004010160012141613B
:102C00000260F0BD000001400004004000080040E8
:102C1000000C00400004014000400140004401401D
:102C20000048014000180040001C00400020004007
:102C300010B501F01F010123046A8B409C4304621C
:102C4000036A8A401343036210BD0000F0B5026AB4
:102C5000036A23F00103036243688469114E24F080
:102C600073050C68104F2C4322F002058A682A4332
:102C7000B04201D0B84205D122F00805CA682A4303
:102C800022F00402B04201D0B84205D14D6923F4CC
:102C900040731D438B692B434360846149684163E2
:102CA0000262F0BD0000014000040140F0B5026A7C
:102CB000036A23F010030362436884690D6824F4F7
:102CC000E64444EA05248D6822F0200242EA051217
:102CD0000F4D104EA84201D0B04206D1CF6822F06D
:102CE000800242EA071222F04002A84201D0B0421C
:102CF00007D14D6923F4406343EA85038D6943EAB4
:102D0000850343608461496881630262F0BD00000D
:102D10000000014000040140F0B5026A036A23F498
:102D2000807303624368C46922F4007224F073055F
:102D30000C68124E2C438D6842EA05220E4DA842C3
:102D400001D0B04206D1CF6822F4006242EA0722E5
:102D500022F48062A84201D0B04207D14D6923F429
:102D6000405343EA05138D6943EA05134360C46188
:102D70004968C1630262F0BD0000014000040140E7
:102D800030B5036A026A22F4805202624268C46962
:102D90000D6824F4E64444EA05248D6823F40053C6
:102DA00043EA0533084DA84202D0084DA84204D199
:102DB0004D6922F4804242EA85124260C46149684A
:102DC0000164036230BD00000000014000040140C6
:102DD00010B5806B0021C185FFF778F910BD70B583
:102DE000846B2068406994F84110C0F3C01000253E
:102DF000212904D118B1E584204600F062F820684A
:102E0000406994F84210C0F38010222904D118B10F
:102E1000E585204600F02EF8606C40F010006064FC
:102E20002046FFF753F970BD10B50146806B096865
:102E30000968C90516D40021C1840168143151E81C
:102E4000002F22F0800241E80023002BF5D1016819
:102E50000C3151E8002F42F0400241E80023002BE2
:102E6000F5D110BDFFF7D2FB10BD10B5806BFFF799
:102E7000EBFB10BD01680C3151E8002F22F4907279
:102E800041E80023002BF5D10168143151E8002FEF
:102E900022F0010241E80023002BF5D1016B01294A
:102EA00009D101680C3151E8002F22F0100241E8ED
:102EB0000023002BF5D1202180F84210002101636E
:102EC000704701680C3151E8002F22F0C00241E840
:102ED0000023002BF5D1202180F84110704708B560
:102EE00090F84210222901D0022008BD81684FF4D9
:102EF0008053994201D1026922B1826A99421BD062
:102F000049B10AE00268816A5268C2F308020A8085
:102F1000816A891C08E0016971B10168496801F0A2
:102F20007F011170816A491C8162C18D491E0904AB
:102F3000090CC18503D01BE001684968F1E701680D
:102F4000CA6822F02002CA600168CA6822F480724E
:102F5000CA6001684A6922F001024A61202180F8B2
:102F6000421000214163026B012A03D0FFF7ACFA43
:102F7000002008BD016301680C3151E8002F22F0E8
:102F8000100241E80023002BF5D101680A68D2063F
:102F900002D50A6849680091818DFFF796F8E7E746
:102FA00070B5044600680169E26821F4405111439C
:102FB0000161A1682069E26901436069104301432E
:102FC0002068C26849F20C639A430A43C2602068D1
:102FD0004169A26921F4407111434161314920687E
:102FE000884202D03049884202D1FEF7A1F801E0C0
:102FF000FEF78EF8E2690023192164253226B2F526
:10300000004F626828D0A0FB0101930F9200FDF7EA
:10301000ACF90146B0FBF5F06FF01802504301EB3C
:10302000800006EB0010B0FBF5F000F0F002B1FB01
:10303000F5F002EB0012B1FBF5F06FF01803584306
:1030400001EB800006EB0010B0FBF5F000F00F0084
:1030500021681044886070BDA0FB010192185B419B
:10306000FDF783F90146B0FBF5F00201B1FBF5F085
:103070006FF01803584301EB800006EBC000B0FB73
:10308000F5F000F0F80002EB4002B1FBF5F0584318
:1030900001EB800006EBC000B0FBF5F000F007008C
:1030A000D6E70000001001400014014081628285D3
:1030B000C28500214164222180F84210016921B1BA
:1030C0000168CA6842F48072CA6001684A6942F0C5
:1030D00001024A610068C16841F02001C16000201E
:1030E000704700000148FEF7F3BF000064020020B3
:1030F000FEE74100080218BF04200A0E18BF40F086
:1031000001004FF07F4232EA010108BF40F00200A7
:10311000012808BF052070470907090E002804DBB5
:1031200000F1E02080F80014704700F00F0000F17B
:10313000E02080F8141D704710B54FF00E402DEDC3
:10314000028BB0EE408A18EE104A00EB4400B0F15A
:10315000506F4AD84FF0FC40B0EB440F22D2B0EE93
:10316000C80AF7EE000A30EEC00AF6EE000A60EE7A
:10317000208A18EE900A02F059FE01EE100A14F0AF
:10318000004F1DBFDFED2D0A9FED2D0AB1EE411A54
:10319000DFED2C0A08BF9FED2C0AF8EE001A21EE95
:1031A000218A05E0DFED290A68EE088AB0EE600AA0
:1031B0009FED271ADFED271A30EE080A48EE811A34
:1031C0009FED251A08EEA11ADFED241A48EE811AA8
:1031D0009FED231A08EEA11A68EE281ABDEC028BA7
:1031E00001EE810A30EE200A10BD4FF0E440B0EB52
:1031F000440F0CD918EE100AFFF77BFF042808BF14
:1032000000F018FBB0EE480ABDEC028B10BD4FF089
:103210007F40B0EB440F07D2B0EE480ABDEC028B02
:10322000BDE8104000F0F8BA0120FDF781FABDECCE
:10323000028BBDE8104000F0F5BA00000000C9BFE5
:1032400022AAFDB90000C93F22AAFD3900000000F2
:1032500024FE1C3DC78AD83C1E67383D1B93993D10
:10326000AFAA2A3E70B54FF068422DED048BF0EE08
:10327000408A18EE900AB0EE608A18EE101A02EB3F
:103280004003B3F1654F3CBF02EB4102B2F1654F21
:103290007DD200BFC0F3C753C1F3C7529A1A1B2A8D
:1032A00009DD10F0004F14BF9FED830A9FED830AE4
:1032B000BDEC048B70BD12F11A0F36DA11F0004F1D
:1032C00009D010F0004F0CBF9FED7D0A9FED7D0AE5
:1032D000BDEC048B70BD88EE889A19EE100AFFF7DA
:1032E00008FF042808BF00F0A5FA18EE900AFFF7BF
:1032F00000FF054618EE100AFFF7FBFE044619EE24
:10330000100AFFF7F6FE042D18BF052D08D1042C76
:1033100018BF052C04D1002804BF0220FDF708FACD
:10332000B0EE490ABDEC048B70BD4200B2EB410F18
:103330003AD910F0004F19BFDFED630A9FED630A21
:10334000DFED630A9FED630AB0EE481A0A46B1EE5C
:10335000688A80F00041F0EE418A10460A1A520055
:10336000B2F1807F34D2484010F0004FDFED5A1A9E
:103370009FED5A2A1DBFBEEE001A70EEE10A30EE34
:10338000420AB6EE001A08BF70EEA10A00E040E063
:1033900008BF30EE020AB0EE682A01EE482A08EEB5
:1033A000818AC2EE081A15E011F0004F04BF9FEDAC
:1033B0004C0AF0EE400AD1D010F0004F19BFDFEDFB
:1033C000490A9FED490ADFED490A9FED490AC5E721
:1033D000C8EE881A21EEA11A9FED462ADFED462A93
:1033E00041EE022A9FED452A01EE222ADFED442A12
:1033F00041EE022A9FED432ABDEC048B01EE222A06
:1034000021EE811A01EE020A30EE210A30EE200A86
:1034100070BD4FF07F42B2EB400F28BFB2EB410FBF
:1034200009D2F0EE480AB0EE680ABDEC048BBDE8A4
:10343000704000F0F4B940EA01035B0008BF41F0BE
:10344000FF410BD0B2EB400F08BFB2EB410F08D1E8
:1034500020F0804008EE900A21F0804108EE101A1A
:1034600018E7B2EB400F12BF5FEA410340F0FF40A4
:1034700001F000413FF40EAFB2EB410F12BF5FEA23
:10348000400200F0004041F0FF413FF403AF4A002A
:1034900092EA40033FF5FEAE002AACBF9FED1A0A48
:1034A0009FED1A0A68EE808A28EE008A18EE900ACC
:1034B00018EE101AEEE60000DB0FC9BFDB0FC93FA4
:1034C000DB0F4940DB0F49C00000C9BF22AAFDB98C
:1034D0000000C93F22AAFD390060ED3EC30ACE3785
:1034E00000000000000049C022AA7DBA0000494047
:1034F00022AA7D3A2DAD65BD8FB8D53D0FB511BE61
:1035000061C84C3EA8AAAABE0000804F0000802FD0
:1035100010EE101A08B5444A6846B2EB410F28D99C
:103520004FF0E640B0EB410F94BF00204FF0FF306A
:1035300000900098002861DB60EE000A10F0010F97
:1035400045D010F0020FDFED391A9FED391A00EE69
:10355000E11ADFED381A40EE811A21EEA01AF0EEE2
:10356000400A40EE010A08BFF1EE600AB0EE600AC0
:1035700008BD314B21F0004293423CD911F0004F7D
:10358000DFED2E0A20EE201ADFED2D0A19BF31EEF5
:10359000601A71EE200A31EE201A71EE600ABDEE5B
:1035A000E01A11EE100A9FED271A00F0030000EE5A
:1035B000C10A9FED251A009000EEC10A9FED231A63
:1035C00000EEC10A9FED221A00EEC10AB1E79FED9D
:1035D000211A9FED210A10F0020F00EE810A9FEDE3
:1035E0001F1A00EE801AB7EE000A00EE810A18BF1B
:1035F000B1EE400A08BD00F025F99AE710EE100A76
:103600004000B0F17F4F3CBFB7EE000A08BD07D1C4
:103610004FF00100FDF78CF8BDE8084000F002B95A
:10362000BDE8084000F0F8B8B61F927E336D4C3903
:10363000DA82083CA0AA2ABE490E494683F9223FF5
:103640000000004B0000C93F00A0FD390020A2335C
:103650001A61342CB93AB2BACA9F2A3DDDFFFFBEC7
:1036600010B52DED028BB1EEC08A18EE100A20F0D5
:103670000040C0F1FF40C00F0AD010EE100A20F049
:103680000040C0F1FF40C00F04BF0120FDF750F81B
:10369000B0EE480ABDEC028B10BD000000B510EE84
:1036A000101A2DED028B81B04D4A6846B2EB410FE6
:1036B0003CD94FF0E640B0EB410F94BF00204FF0F3
:1036C000FF3000900098B0EE408A00285FDB28EEC3
:1036D000080ADFED440A9FED441A00EE201ADFEDE0
:1036E000430A40EE010A9FED421A00EE201ADFED78
:1036F000410A10F0010F40EE010A9FED3F1A00EE63
:10370000201A61EE000AB0EE480A08EE200A02BF55
:1037100001B0BDEC028B00BDBFEE001A01B0C1EEDE
:10372000000ABDEC028BB0EE600A00BD334B21F005
:103730000042934228D911F0004FDFED310A20EE0C
:10374000201ADFED300A19BF31EE601A71EE200A3F
:1037500031EE201A71EE600ABDEEE01A11EE100A89
:103760009FED291A00F0030000EEC10A9FED271A11
:10377000009000EEC10A9FED261A00EEC10A9FEDEF
:10378000251A00EEC10A9DE700F05CF89AE718EEF2
:10379000100A4000B0F17F4F0DD218EE100AFFF76B
:1037A000A8FC042808BF00F045F8B0EE480A01B0B4
:1037B000BDEC028B00BD09D10120FCF7B9FF01B0BF
:1037C000BDEC028B5DF804EB00F02CB801B0B0EE5C
:1037D000480ABDEC028B5DF804EB00F01DB8000058
:1037E000B61F927EBBE9223C0C6D063B8A76CE3C2E
:1037F000ACB5593D35A1083E29AAAA3E490E494615
:1038000083F9223F0000004B0000C93F00A0FD39B2
:103810000020A2331A61342C30EE000A704730EEDB
:10382000200A7047DFED020A80EEA00A7047000010
:10383000000000009FED020A20EE000A7047000021
:10384000000000102DE9F0014FF07F42B2EB410F74
:103850009FBF4FF0FF310160BDE8F00170474FF0AE
:10386000004242EA0123C1F3C752783A551112F0DF
:103870001F0C434CCCF120067C44C1F3C752A2F18B
:1038800078024FEA621204EB820254F8254008BF26
:10389000D2E9015612D0556804FA0CF425FA06F75D
:1038A0003C43976805FA0CF527FA06F8D26807FA40
:1038B0000CFCF24045EA08054CEA0206A4FB034C66
:1038C000A5FB0352A6FB03631D449D4234BF0126A2
:1038D00000261319334416B1934202D903E09342F0
:1038E00001D2012200E00022624402F1200C920683
:1038F000DC0C42EA443200EE102A5B03DFED210AC1
:10390000F8EEC01A00EE103A4FEA9C1C11F0004F7E
:10391000B8EE400AC0F800C020EE201A00EE105A9F
:10392000DFED190AB8EE400A20EE200A71EE810A96
:1039300070EE800A10EE902A02F500626FF30B021F
:1039400000EE902A70EEE11A31EEC11ADFED101A86
:1039500030EE411A9FED0D0A20EE800A01EE210A99
:103960009FED0C1A00EE810A04BFBDE8F00170471C
:10397000CCF180510160BDE8F001B1EE400A704722
:10398000F8470000000000360000802C22AAFD2924
:10399000DB0FC92F0000C92F2DE9FF4FA7B09146BB
:1039A0002798834A00EB400002EBC005349C287B3B
:1039B0004FF009084FF0000AC0F3400030B92A69FF
:1039C00022B11278D20701D0012200E000229346F2
:1039D000784ACFB216785278C8B11C46FF2905D96B
:1039E000284600F0EDF82BB0BDE8F08FFE208DF8F2
:1039F00068008DF86940A8798DF86A008DF86C2010
:103A00004FF005088DF86B608DF86D702AE000238B
:103A1000BBF1000F00D00123484601E0641EE4B270
:103A2000012C06D900EB040C1CF801CCBCF1000FF2
:103A3000F4D0FD208DF868008DF869408DF86A306B
:103A400000208DF86B00A8798DF86C00080A8DF8BD
:103A50006D608DF870008DF86E20080C8DF86F7019
:103A60008DF87100A8790DF16907401CA8714FF617
:103A7000FF704646ADF8000004E017F8010B6946F8
:103A800000F053F9761EB6B2F7D2BDF80000ADF8DB
:103A9000840021A84E462746009004E016F8010B4A
:103AA000009900F042F97F1EBFB2F7D221A93598E4
:103AB00000F03BF9BDF884008DF88800000A8DF80D
:103AC0008900BBF1000F46D02D691AA80DF1740AC8
:103AD00008F101064F460DF1880B2390002D64D0AC
:103AE0002878C00761D068788DF87400D5E90201A4
:103AF000CDE92401CDF87500BDF89400ADF879004A
:103B0000D5E90210491C40F10000C5E902106846E1
:103B100000F0C0FF202205F11001684600F0DEFF32
:103B200032466846239900F0D9FF22463946684656
:103B300000F0D4FF02225946684600F0CFFF07226A
:103B40005146684600F0CAFF0AF10701684600F0D6
:103B50005BFF0D208246174D0020AD1EE88008F166
:103B600001021AA9279800F02FF822464946279803
:103B700000F02AF8022222A9279800F025F8BAF1CD
:103B8000000004D002461DA9279800F01DF84FF050
:103B9000FF31E86803F04CF801287FF424AFEA888D
:103BA00005490648FEF7EEFC1DE70020D2E70000BD
:103BB0003C6700206A010020646D00206402002040
:103BC0008178491C8170704770B5074C15460548CF
:103BD000E28810442A46FCF7DAFCE0882844E080BA
:103BE00070BD0000646D002068010020FEE7000049
:103BF00010B5344C35482DED048BF0EE608AB0EEF4
:103C0000409A9FED318AB0EE492AD4EC030AB0EE17
:103C1000480A303C01F022F99FED2D0A2B4801F0B3
:103C20003EF99FED2C0A294801F03CF93C34274825
:103C3000B0EE492AD4EC030AB0EE480A3C303C3CD2
:103C400001F00CF921489FED240A3C3001F027F9DE
:103C50001E489FED220A3C3001F024F90C341B4829
:103C6000B0EE682AD4EC030AB0EE480A78300C3C77
:103C700001F0F4F81548B3EE0E0A783001F00FF9B0
:103C800012489FED170A783001F00CF918340F48EC
:103C9000B0EE682AD4EC030AB0EE480AB43001F062
:103CA000DDF80A489FED0F0AB43001F0F8F8BDECDA
:103CB000048B0648BDE810409FED0B0AB43001F0BC
:103CC000F1B8000004010020000000004C66002054
:103CD0000000FA430050C3460000484200401C4721
:103CE00000009644000034430000F0422DE9F0410A
:103CF0000E460746002406EB8405C4EBC40095ED90
:103D0000000A07EB800000F08DFB641CE4B285ED37
:103D1000000A032CEFD3BDE8F081884201DA08469F
:103D200070479042FCDD104670470A8813464240B7
:103D300082EA0210C0B21A0A82EA002282EAC002B3
:103D400082EA101008807047064991ED030A80ED61
:103D5000000A91ED040A80ED010A91ED050A80ED5B
:103D6000020A7047DC650020064991ED010A80EDEA
:103D7000010A91ED020A80ED020A91ED030A80ED3D
:103D8000030A7047F465002010490F4A0B7802EBD4
:103D9000031393ED000A80ED020A0B7802EB031384
:103DA00093ED010A80ED030A0B7802EB031393ED08
:103DB000020A80ED110A097802EB011191ED030A64
:103DC00080ED100A704700007C6E00206801002022
:103DD00038B504000BD000208DF800007520236852
:103DE00069460122984728B16FF0010038BD4FF0B5
:103DF000FF3038BD9DF80000472802D06FF0020068
:103E000038BD01221121204602F0E6FB0A20FCF712
:103E1000F5FE0F224E21204602F0DEFB10B16FF0BE
:103E2000030038BD0A20FCF7E9FE002038BD1FB5AD
:103E30000C4650B14CB10E22036869461D209847CC
:103E400030B16FF0010004B010BD4FF0FF30FAE761
:103E5000BDF8000040BAA081BDF8020040BA208041
:103E6000BDF8040040BA6080BDF8060040BAA080EA
:103E7000BDF8080040BAE080BDF80A0040BA2081D1
:103E8000BDF80C0040BA60810020DCE72D48B7EE99
:103E9000006A90ED052AD0ED060A90ED070A90ED34
:103EA000081A62EE202A62EE003A22EE013A20EE73
:103EB000A05A20EE802A60EE001A21EE014A60EE40
:103EC000810A20EE011AB0EE000AF0EE464A72EEC8
:103ED000435A41EEC04A1C4832EE032A65EE805A2E
:103EE00044EE404A22EE002AC0ED004AC0ED015ADD
:103EF00070EEA35AF0EE464A70EEE30A45EE404AF1
:103F000065EE805A60EE800AC0ED025A80ED032A09
:103F1000B0EE642A41EEC04A04EE402A80ED042A45
:103F200031EE622A22EE002A80ED052AC0ED060A53
:103F300071EE220A60EE800AC0ED070AC0ED084A61
:103F400070470000B00000206065002070B5F6EEFC
:103F5000004A2DED028B63EE244A0546F0EE405AEE
:103F6000F0EE603AB0EE414A9FED6E6AF5EEC05A4F
:103F70006D4C21EE865A22EE062A62EE862A6B4AA4
:103F8000F1EE10FA09D1F5EEC03AF1EE10FA04D1D3
:103F9000B5EEC04AF1EE10FA47D025EEA50A03EEC1
:103FA000A30A04EE040A00F0C7F865EE801A63EE77
:103FB000803A24EE000A94ED074AD4ED080AD4EDC5
:103FC000065A20EE041A03EEE01A61EEA00A40EE53
:103FD000650A23EEA50AD2ED023A01EEC40AD2ED3B
:103FE000011A21EE814A61EEA05A61EE801A44EE78
:103FF000033AC2ED023A92ED034A05EE834A82ED9E
:10400000034AD2ED045A41EE835AC2ED045AD2ED6E
:10401000001A41EE813A01EEA04A41EE805A35EE97
:10402000235A32EE042A72EEA52AD2ED061A92ED38
:10403000050A92ED071A21EEC53AB0EE404A65EE48
:10404000003A62EE005A01EE423A22EE800AD2EDC8
:10405000080A41EE223A41EEE25A01EE820A00EEEF
:10406000E23A40EEC23A40EE855A01EE450A03EECE
:10407000244AB0EE613A03EEA43AF0EE413A40EE43
:10408000240A24EE040A45EEA43A82ED054A82EDA4
:10409000063A03EE030AC2ED073AC2ED080A03EE40
:1040A000A30A00EEA00A00F047F8D2ED050A60EE80
:1040B000800AC2ED050AD2ED060A60EE800AC2ED62
:1040C000060AD2ED070A60EE800AC2ED070AD2EDB9
:1040D000080A20EE800A82ED080AFFF7D7FE94ED69
:1040E000060AFFF729F8DFED120A20EE200A85ED17
:1040F000020AD4ED080A94ED070AFFF7B3F89FED22
:104100000D8A20EE080A85ED010AD4ED000A94ED2F
:10411000030AFFF7A7F820EE080A85ED030ABDECB5
:10412000028B70BD35FA8E3C60650020B000002027
:10413000E12E65C2E12E654210EE100AF6EE000A8D
:10414000074960EE200AA1EB600000EE100A20EEA5
:10415000801AF7EE080A41EE400A20EE800A704706
:10416000DF59375FDAB003220021012002F0CCFAD8
:10417000A24E00231A461946F06002F05DFB9FED47
:10418000A00AF0EE400AFFF733FD002240F22311AF
:10419000052002F0B9FA30610122711C9948FEF73E
:1041A00085F902F0A3FE804602F0A0FE05464FF41A
:1041B0007A7A0DF1140B4FF0FF3902F097FE0446A6
:1041C000401B504518D300278DF830718DF83171A0
:1041D00004208DF832718DF8330103208DF83401FD
:1041E00009204B973221CDE90001034625464BAA11
:1041F00000213846FFF7D0FBA4EB080014283DD37C
:10420000A04652A8FFF7B0FD56A8FFF79DFD002479
:10421000FCF7F4FD4FF47A71DDED530A48439FED4E
:104220007A0A9DED551ADDED572A20EE802A61EEBF
:10423000001ADDED540A9DED561A9DED583A4B904B
:1042400060EE800A21EE001A8DED4C2A62EE802A83
:10425000CDED4D0A23EE000ACDED4E1A8DED4F1A2D
:10426000CDED502A1C208DED510A2721CDE900010A
:1042700003464BAA1E212046FFF78EFBA4E00498BC
:10428000000A142809D0152804D0172825D046285C
:1042900002D142E00020B08096E09DF80B404BAF89
:1042A000142C00D3142414213846FCF7EFF92246CD
:1042B00059463846FCF76BF9BDF92C010C2806D39A
:1042C0009DF8300100287FD04CA800F07FFD002829
:1042D0007ADB80B200F092FD76E09DF80B404BAFA8
:1042E000172C00D3172417213846FCF7F1F9224682
:1042F00059463846FCF790F90DF5997000F066FDC7
:10430000002861DB414A00EB400102EBC1019DED59
:104310004B0A496981ED000ADBE79DF80B404BAF82
:10432000262C00D3262426213846FCF7AFF9224656
:1043300059463846FCF72BF93078354980F00100B2
:1043400001EB0010BDF82C11DFED320A00EE101A5F
:104350009FED311AB8EE400A30EE600A20EE011AE5
:104360009FED2E0AC1EE001AC0ED011ABDF82E1104
:10437000DFED2B1A01EE101AB8EE411A31EE601A79
:1043800021EE211A80ED001ABDF8301101EE101A4D
:10439000B8EE411A31EE601A21EE001AC1EE001A91
:1043A000C0ED031ABDF8321101EE101AB8EE411A31
:1043B00071EE600A60EE800A80EE801A80ED021ACB
:1043C000307880F001003070002202A9306902F0DC
:1043D00093FB01283FF453AFB6F9040034460C2890
:1043E00006D280B200F00AFDA088401CA08001E047
:1043F000A6F80490012001F033FFDEE668010020FA
:104400006F12833B6402002035FA8E3C5C74000816
:104410007C6E00200080BB44000034430000FA435F
:104420008FC2753D90ED051AD0ED001AF0EE400AEE
:1044300090ED012A41EE610AD0ED061A41EEC20A62
:1044400010EE901A6FEAD15111F0FF0F01D1F0EE8A
:10445000400A90ED030A90ED022A21EE000A00EED8
:10446000820A90ED042A80ED061AC0ED050A01EEDD
:10447000820A7047002806D0F5EEC00AF1EE10FA65
:1044800001D900F001B8704780EE201ADFED250A4F
:1044900010B504462DED068B80EE810AFFF7FEF87D
:1044A0009FED21AAB0EE408AB0EE4A0AFFF730F83D
:1044B000B0EE009AF7EE009A20EE090AF0EE698A53
:1044C00040EE088A28EE080A48EE088AC0EE280A5C
:1044D000C4ED020A20EE890A84ED030AB0EE690AEF
:1044E000C4ED040A18EE080A20EE090AC0EE280AF4
:1044F000B0EE4A0AC4ED000AFFF70AF820EE090AF6
:1045000040EE489A48EE089A89EEA80A84ED010A1E
:104510009FED060A84ED050A84ED060ABDEC068BC4
:1045200010BD0000DB0F4940DB0F493F00000000D9
:1045300008B5FCF771FCFEF7BBFAFEF787F82448D4
:104540000024016841F4800101600068224600F403
:104550008000009005214620FCF7EEFC4620FCF789
:10456000DDFCFEF7D3F8FEF7F1F81B4819494FF4CC
:10457000E1350160C0E901540C26C460C0E904467D
:104580008461C461FDF7E4FE08B172B6FEE712482B
:10459000124948300160C0E90154C460C0E90446D2
:1045A0008461C461FDF7D4FE08B172B6FEE7FEF780
:1045B00031F901F0F1FC00F097FB094A00210948AC
:1045C00000F0C0FB0849086000F0A0FBFEE7000017
:1045D00030380240001001406402002000440040D6
:1045E00018730008112A0008000000202DE9F05F70
:1045F0004FF0000A0A9F054681F800A0C878994646
:1046000016460C4605F10C0B4FF00108112824D278
:10461000DFE800F009092436474D545B6275838F4B
:104620009DDDDDF7F700FD2E02D0FE2E09D035E12D
:104630000220E07085F803A0AA70207B20F0010022
:1046400007E00220E07085F803A0AA70207B40F00C
:1046500001002073284600F035FB14E1EE7084F869
:1046600004A03146284600F031FB207BC00705D06E
:1046700085F804A085F805A005204CE003204AE059
:104680002E71700807D02046FFF79AFA84F800A030
:1046900084F8038002E13146284600F017FB04202D
:1046A00039E06E713146284600F010FBE4E7AE7148
:1046B0003146284600F00AFB06202CE0EE71314618
:1046C000284600F003FB072025E02E7231462846DD
:1046D00000F0FCFA08201EE0A868314666F31F20AF
:1046E000A860284600F0F2FA207BC00705D0E878E1
:1046F00008B10B200FE00C200DE009200BE0A868AA
:10470000010A41EA062161F31F20A86031462846CC
:1047100000F0DCFA0A20E070B5E0A868010A41EA7E
:10472000064161F31F20A8603146284600F0CEFA0A
:10473000DDE72079411C217100F80B6031462846E5
:1047400000F0C4FA2079E9788842D4D09BE0A868C8
:104750000021030ADFF88CC1E9228818401C4008B8
:1047600000EB40085CF8288098450BD9A0F10102C5
:104770009142F2D301EB41005CF82010994204D041
:10478000504604E00146F3D3F4E70CEB80005FEA07
:10479000000809D098F80410284600F097FA287805
:1047A000B04206D00E2005E00E20E07085F81461BE
:1047B00069E00D20E07085F81461207998F8061002
:1047C000884260D2091A5844FBF760FF5BE00E286C
:1047D00003D02888B6EB102F02D00220207001E011
:1047E00084F8008085F815212879C0070DD020783D
:1047F000022807D00F20E07084F800A00D2060731D
:1048000041E010E01020E070F8E7206970B3026B1F
:1048100022B1A868010A2046904738BB20780228B8
:1048200027D0032024E0607BC0F10D00284480F8ED
:104830001621607B401E10F0FF00607323D1D4E985
:1048400004012A4600F08AF9060008D12069026BAB
:104850002AB1A868010A2046904700B10126E078F5
:10486000102804D0002EDCD084F8008001E0022063
:10487000207084F80380B9F1000004D040F22312C4
:104880002946FBF784FE2078012807D1A8796071BA
:10489000208908B9A4F80AA0401C2081B9F1000FB2
:1048A00002D0E97889F8031067B1E078F8702079D0
:1048B00038716079401C787120893881A0787881BE
:1048C000207B387384F802A02078022806D1B9F141
:1048D000000F03D0B5F81411A9F800102078BDE836
:1048E000F09F00007C7500082DE9F04FC8B0826889
:1048F0004792C46846940569884645954169449144
:104900008E4681694391C3694293066A99464196EE
:10491000436A40939B4600236F4658F823C047F8EC
:1049200023C05B1C102BF8DB102307EB830A5AF81B
:10493000087C4FEA774C8CEAF74C8CEA972C5AF8B3
:104940003C7C4FEAF71888EAB74888EAD707BC44A6
:104950005AF81C8C5AF8407C4744BC444DF823C09C
:104960005B1C6F46402BE0DB00234FEAB11787EA60
:10497000F12787EA716C01EA090726EA010887EA4C
:104980000807BC441F4F57F8238008EB0B07BC44B3
:104990005DF82370B3460CEB070A4FEAB20787EACB
:1049A000723787EAB25C84EA05074E4604EA0508D6
:1049B000894617400EEB0A01AE4687EA08072546EE
:1049C000674414465B1C0AEB0702402BCDDB479B78
:1049D0001A448260469A2244C260459A2A4402617F
:1049E000449A72444261439A114481614299494414
:1049F000C16141993144016240995944416248B0D2
:104A0000BDE8F08F5C7300082DE9F0410446008892
:104A100092B0C0F3C500C0F1770000F03F078020DE
:104A20000E468DF8000004F108054721E8460DF117
:104A300001007F1CFBF72AFE08EB07002178C171FB
:104A4000218807F10802090A81712168090C417166
:104A50002168090E01712179C170A188090A81704C
:104A60006168090C41706068010E08F8071069461A
:104A7000204600F033F8E8783070A87870706878D5
:104A8000B0702878F070E8793071A879707112B040
:104A9000BDE8F0810021016041600849816008495A
:104AA000C1600849016108494161084981610849BB
:104AB000C1610849016208494162704767E6096AB5
:104AC00085AE67BB72F36E3C3AF54FA57F520E512F
:104AD0008C68059BABD9831F19CDE05B2DE9F041B4
:104AE000054600681446884600EBC40190B0296072
:104AF000814202D26968491C6960C0F3C50627E09B
:104B0000C6F14007BC4200D22746A8193A464146A2
:104B10002830FBF73CFD3E44E41BB844402E17D13F
:104B200005F1280200216E4602EB810006EB8103AD
:104B3000C7781F7087785F7047789F700078491C2E
:104B4000D8701029F0DB31462846FFF7CDFE00264D
:104B5000002CD5D110B0BDE8F08100002DE9F04364
:104B6000A1B014460E46050030D004F1020804F549
:104B70008B7704F21D196846FFF78CFF202205F1A0
:104B800010016846FFF7AAFF0A2241466846FFF770
:104B9000A5FFE27804F10C016846FFF79FFF0222AF
:104BA00004F58A716846FFF799FF0722394668467F
:104BB000FFF794FF1EA96846FFF726FF0622494625
:104BC0001EA8FBF76DFC28B102205FE0012021B098
:104BD000BDE8F0833B780020CDE91A00D7F801004A
:104BE0001A90B7F80500ADF86C0016B100203288B5
:104BF00015E003204AE000EBC001314494F807C0FF
:104C000091F80380C44508D194F808C091F8048055
:104C1000C44502D18978994203D0401C80B28242B7
:104C2000E9D882421ED1102A01D304202EE0DDE90A
:104C30001A1C234A8A184CF10001D5E9028CB2EB08
:104C4000080271EB0C0101D205201FE000EBC0014E
:104C50003144E279CA70227A0A718B703188491C1A
:104C6000318017E00021CDE91C1100EBC001314477
:104C700051F8052F1C9289881446DDE91A23ADF8F6
:104C800074101D99A21A994104D3062085F83400A6
:104C900000209CE700EBC000304457F8011F40F8AB
:104CA000051FB9888180D5E90223DDE91A01121AAE
:104CB0008B4101D2C5E90201012085F8340085E766
:104CC000808D5B004FF6FF710180704738B5044658
:104CD0000A460088ADF8000069461046FFF725F83F
:104CE000BDF80000208038BDEFF3058010B16FF0F3
:104CF000050070470448016811B14FF0FF3070475C
:104D000001210160002070476400002010B5EFF31E
:104D1000058010B16FF0050010BD08480168012939
:104D200002D04FF0FF3010BD054A002182F8141D5B
:104D30000221016001F0D4FB002010BD64000020BE
:104D40000BE000E02DE9FF410B464FF00005EFF3CB
:104D50000581039549BB40B38026182100244AB33E
:104D6000176807B13C46976907B139464F1E382F7F
:104D700002D21779FF0703D0002004B0BDE8F0810C
:104D8000576907B1BE08D2F808C0BCF1000F0DD0BA
:104D9000D5685C2D18D312693AB137B18DE8061089
:104DA0003246214602F067F803900DE0D7685FB9FC
:104DB00012694AB903AACDE90012B2B2214602F043
:104DC0002DF8012800D003950398D6E770B50A4D59
:104DD0000646002404EB440005EBC00010223146D7
:104DE000FBF78AFB30B1641C24B20C2CF2DB4FF0D1
:104DF000FF3070BD204670BD5C74000810B51649C8
:104E0000002400EB400211EBC2018AB04A694FF066
:104E10000C0392ED000A4FF009028DED020AADF885
:104E20000C30ADF80E008DF8202004A84FF01002D1
:104E30000DD0FBF7ACFB1920DC21CDE900010346C6
:104E400002AA16212046FEF7A7FD0AB010BD1146A2
:104E5000FBF71CFCEFE700005C740008DFED0C2A98
:104E600000F11401C0ED012AC0ED022AC0ED032AB1
:104E7000C0ED042A80ED000A9FED060A80ED0B0AC2
:104E8000C0ED0C2A80ED0D2AC1EC030A704700002A
:104E9000000000000000F04280ED000A704780ED45
:104EA0000B0A704780ED0C0A7047F0EE400AC0ED27
:104EB000010A90ED031AD0ED0D1A00EEA11A80ED53
:104EC000031A90ED0B0AB4EEC01AF1EE10FA06DCEC
:104ED000B1EE400AB4EEC01AF1EE10FA01D280ED44
:104EE000030A90ED020A30EEC01A81EE210A80ED2D
:104EF000040A90ED051A21EE201A80ED081AD0ED73
:104F0000061A90ED032A61EE821AC0ED091A90ED9F
:104F1000072A31EE211A22EE000A80ED0A0A31EE4C
:104F2000000A90ED0C1AB5EEC01AF1EE10FA0DD091
:104F3000B4EEC01AF1EE10FA06D3B1EE411AB4EE97
:104F4000C01AF1EE10FA01DDB0EE410AC0ED020A1E
:104F500080ED0E0A704700002DE9F04190ED000A47
:104F6000DFED280A4FF4FA674FF47A7820EE200A32
:104F7000BDEEC00A10EE104A90ED010A20EE200AA4
:104F8000BDEEC00A10EE101A90ED030ABDEEC00A85
:104F900010EE103A90ED020A1819BDEEC00AE51A9B
:104FA00000F2DC5010EE102A05F2DC555418561AA7
:104FB0003A46414604F2DC5406F2DC56FEF7ADFEFA
:104FC00081B2002001F002F83A4641462846FEF739
:104FD000A4FE81B2012000F0F9FF3A464146204686
:104FE000FEF79BFE81B2022000F0F0FF3A464146F8
:104FF0003046FEF792FEBDE8F04181B2032000F09A
:10500000E5BF00000AD7A33C70B53D4D2DED048BE4
:10501000A5F12403B5F90600D3ED000A00EE100A4D
:10502000B5F90810B5F90A20B8EEC00A30EE609A5A
:1050300000EE101AD3ED010AB8EEC00A70EE608AD5
:1050400000EE102AD3ED020AB8EEC00A30EE608AF4
:1050500000F0A8F82B4E307038B1B5F90420B5F93E
:105060000210B5F9000000F055F89FED270A244C16
:1050700029EE000A183C04F10C0184ED030A9FEDAF
:10508000230A01F1700068EE800A28EE000AC4EDE0
:10509000040A84ED050AFEF729FEB5F90000DFEDEC
:1050A0001C0A00EE100A2146B8EEC00A20EE201AB3
:1050B00096ED020AC1EE001AC4ED001AB5F902001D
:1050C000404201EE100AB8EEC11A21EE201AC1EEDC
:1050D000001AC4ED011AB5F90400404201EE100AAD
:1050E00001F12800B8EEC11A61EE200A80EE801AA4
:1050F00084ED021ABDEC048BBDE87040FEF7F6BDEE
:10510000944C002094000020FFFF793DFFFF79BD03
:105110000000003A10B5204C6378D3BB01EE101AA2
:1051200000EE100ADFED1D0AB8EEC11AB8EEC00A93
:1051300061EE201A01EE101A20EE200AB8EEC11A14
:1051400020EE000A21EE201A01EE810A01EE102A5B
:10515000B8EEC11A61EE201A01EE102AB8EEC11A9B
:1051600061EE200A01EEA00AFEF77AFAD4ED010AF8
:1051700030EE200A84ED010AE068401CE060C82897
:1051800007D10120DFED060A80EE201A84ED021A15
:105190006070607810BD0000940000200000003AAC
:1051A00000004843F0B5254C1D4687B02369012611
:1051B000188020694180206941F6140121448280D1
:1051C0002069801D2061884203D304F1140020610E
:1051D00066731A4F387B08BB3C46607BF0B16A4669
:1051E00003A9204600F08CFC15480399814213DA8C
:1051F0000499814210DA059981420DDA9DED000A89
:1052000084ED000A9DED010A84ED010A9DED020A7C
:1052100084ED020A267301E00020607397ED000A16
:1052200085ED000A97ED010A85ED010A97ED020A66
:1052300085ED020A387B07B0F0BD00004C4D002020
:1052400000401C472DE9F041134E0F460446F56817
:105250003068001D00F0D2FE601C07D137B1316804
:10526000BDE8F0410D48091D00F018BF30682C441E
:10527000AC424460316805D2B06BBDE8F041091D15
:1052800000F0F4BE706B091D00F0F0FEB06A8442BD
:1052900000D2B462BDE8F081140000208C08002028
:1052A0002DE9F041054600F005FF2D4EB068401C89
:1052B000B06030682B4F10B1706930B32BE03560AF
:1052C000B068012827D1002404EB840007EB80009C
:1052D00000F0BEFE641C382CF6D3234800F0B8FE64
:1052E0002148143000F0B4FE1F48283000F0B0FE12
:1052F0001D483C3000F0ACFE1B48503000F0A8FECA
:10530000194870631430B06305E03068E96AC06A18
:10531000884200D83560706A401C70626864E86A30
:105320003169884200D9306100EB800007EB8000D2
:10533000291D00F0B3FE00F0DDFE706900280CD0DE
:105340003068E96AC06A884207D208494FF0805045
:105350000860BFF34F8FBFF36F8FBDE8F08100008F
:1053600014000020DC0300203C08002004ED00E0D5
:1053700038B500F09FFE104C2068C8B90F4800F007
:1053800067FE0E48143000F063FE0C48E0601430F5
:1053900020610A4B0020F03B009003F150021021E5
:1053A0000A2001F0D2F9206010B105A100F024FF1D
:1053B000BDE8384000F09EBE50000020900900205B
:1053C000546D72510000000030B4026C0B46002A8C
:1053D0000BD0C1681144C1608468A14201D3016847
:1053E000C16030BC1846FBF7D2B830BC70472DE91D
:1053F000F041856B174604460026026C82B1C7B1A6
:10540000E068FBF7C4F8E168206C091AE1602268E3
:10541000914202D2A168081AE060022F16D017E06C
:105420002068A8B9A06801F0CBFD06460020A06066
:105430000EE06068FBF7ABF8216C606808446060C0
:10544000A168884204D32068606001E005B16D1E48
:105450006D1CA5633046BDE8F08110B5044690F898
:10546000590058B101280CD002280FD0502080F3E9
:105470001188BFF34F8FBFF36F8FFEE7206B00F0F3
:105480004DFE2046BDE8104000F048BE10BD0000B3
:1054900010484FF47051420706D0C01D0D4920F04E
:1054A0000700411AC1F570510B4A00230144C2E9BB
:1054B00000030839183A21F0070111604B600B60B6
:1054C0000B1AC0E9001393604FF000405360506125
:1054D000704700007010002080000020134E144D13
:1054E000A6F29C474FF08058DFF8489011E000F09A
:1054F000E1FDF068C468201D00F080FDA868401E32
:10550000A8606868401E686000F0F4FD2046FFF760
:10551000A4FF68680028EAD138680128F9D9C9F8D9
:105520000080BFF34F8FBFF36F8FF2E77808002042
:105530001400002004ED00E070B51D46049C49B144
:105540002260C4E90F010121204601F031F984F8FD
:105550004C5070BD2460F4E72DE9F05F0E46DDE9A4
:105560000B941746834691009A460A9DA522206B0C
:10557000FBF784F86FF00301206B01EB870108440F
:1055800020F00707780707D0502080F31188BFF379
:105590004F8FBFF36F8FFEE74FF0000866B100201A
:1055A0002218315C82F83410315C11B1401C102893
:1055B000F6D384F8438001E084F83480382D00D39A
:1055C0003725E562C4E91358201D00F04CFD04F1B5
:1055D000180000F048FD2461C5F138006462A06144
:1055E000C4F8548084F8588052465946384600F032
:1055F00069FA2060B9F1000F01D0C9F80040BDE898
:10560000F09F000030B5114900E011460A6882425F
:10561000FBD34B685C18844203D14068184448604F
:10562000084643681C18944209D1084C183C246869
:10563000A24209D052681A4442600A6812680260A5
:10564000814200D0086030BD0460F9E7800000208E
:1056500070B5002441600B4D0061914206D8D11A0B
:105660008269914206D2011D286907E09A4203D25D
:10567000994201D3012403E0011DE86800F0F6FC23
:10568000204670BD5000002010B5044600F012FD09
:10569000A06B20B1002400F02DFD204610BD012498
:1056A000F9E7000030B587B03C4D6EE00198002866
:1056B00006DADDE90301029A90470198002864DBCD
:1056C000039C606910B1201D00F098FC05A800F053
:1056D000D7F8024601980A2857D2DFE800F00505FE
:1056E000052D334A05052D3394F8280040F00100BC
:1056F00084F828000298A169034601442046FFF778
:10570000A7FF68B3216A2046884794F8280040071D
:105710003BD5002000900298A16900234218194649
:10572000204601F091FDD8B9502080F31188BFF3D5
:105730004F8FBFF36F8FFEE714F8280F20F00100A2
:10574000207022E094F8280040F0010084F828003E
:105750000298A06128B1811813462046FFF778FF10
:1057600013E0502080F31188BFF34F8FBFF36F8F8A
:10577000FEE794F82800810703D4204600F0CEFC11
:1057800003E020F0010084F82800002201A9286825
:1057900001F0B2F9002889D107B030BD50000020D7
:1057A0002DE9FC410F46054600F0DCFE01A800F0A3
:1057B00067F80446019818B101F0B6FCBDE8FC8119
:1057C000254EAFB130690068D0B30027291B3A4697
:1057D000306800F023FD01F0A7FC0028EED11F493E
:1057E0004FF080500860BFF34F8FBFF36F8FE5E736
:1057F000A542EBD801F098FCF0682746C068C46861
:10580000201D00F0FBFB94F82800410719D5A06982
:105810002B4641193A462046FFF71AFFA8B100204F
:105820000346014600902A46204601F00DFD60B96E
:10583000502080F31188BFF34F8FBFF36F8FFEE7C7
:1058400007E020F0010084F82800216A20468847FC
:10585000B4E70127BAE700005000002004ED00E0A3
:105860000648416B096829B1416BC968C968496834
:10587000816270474FF0FF31FAE70000140000200A
:1058800070B5054601F032FB064E0446B06884420E
:1058900003D200F009F8012000E000202860204633
:1058A000B46070BD50000020F8B5194E20E0C0680B
:1058B000C4680568201D00F0A1FB216A20468847C6
:1058C00094F82800400713D5A0692844A84206D9B7
:1058D00024616060211DF06800F0C8FB08E0002032
:1058E0000346014600902A46204601F0ADFC38B13F
:1058F000F06801680029DAD13169C6E90310F8BD02
:10590000502080F31188BFF34F8FBFF36F8FFEE7F6
:105910005000002008484068401C4FF0500080F3C1
:10592000118804D0BFF34F8FBFF36F8FFEE7BFF333
:105930004F8FBFF36F8FFEE788000020084CE068B0
:10594000016839B1002139B10020FFF729FFFFF7C5
:10595000A9FEF4E70121F6E7C0680068F5E700005A
:10596000500000202DE9F041044600F0A3FB94F91B
:10597000455004F1240609E0606A48B1304601F060
:105980009BFB08B100F02AFD6D1E6DB2002DF3DC0B
:105990004FF0FF3684F8456000F0ACFB00F08AFB66
:1059A00094F9445004F1100709E0206948B13846E1
:1059B00001F082FB08B100F011FD6D1E6DB2002DEB
:1059C000F3DC84F84460BDE8F04100F093BB0000D4
:1059D0002DE9F0410546002600F0C4FD324F38683D
:1059E00008B9FFF755FD786905424ED1C5B30835B2
:1059F00068070ED005F00700C0F1080005446807ED
:105A000007D0502080F31188BFF34F8FBFF36F8F03
:105A1000FEE72DB37868854237D823491831084608
:105A2000046801E0214604466068A84202D220686A
:105A30000028F7D13868844227D00E6820680860B3
:105A400060680836411B10290FD96019420708D039
:105A5000502080F31188BFF34F8FBFF36F8FFEE7A5
:105A600013E041606560FFF7CDFD61687868401A1A
:105A70007860BA68904200D2B8607869014300202B
:105A8000C4E90001F868401CF86001F04DFB7007A4
:105A900007D0502080F31188BFF34F8FBFF36F8F73
:105AA000FEE73046BDE8F081680000200449086840
:105AB00018B10868026D521C026508687047000042
:105AC0001400002010B5031F4FF080741C601B1FD2
:105AD00021F001011960191F044B0B6014390A6091
